:060000000A128A1100291A
:100200000E213221392108184821881850210B1D50
:1002100007294421860A6B217721032903178316B6
:10022000880189010313831685018517031383163B
:100230008601F03086000313831687017030870033
:1002400003138316033088000313831285010313FD
:10025000831286010313831287010030A00000304F
:10026000A1000800031383160F138F160F160F1427
:1002700008000313831681128111011581140114E2
:100280000313831244210800CF3081000B110800B2
:1002900008184829A00A20080F39582185000800AD
:1002A00088185029A00320080F395821850008001C
:1002B0008A010A1482073F3406345B344F346634B3
:1002C0006D347D340734FF346F3477347C34393403
:1002D0005E347934713421080A3C031D7529870A7C
:1002E00007080F398700A1010800A10A08000608C5
:1002F000070203197F297D29080087130800870159
:040300008717080053
:04400E00D420FF3E7D
:00000001FF
